{
  "_format": "hh-sol-artifact-1",
  "contractName": "Marketplace",
  "sourceName": "contracts/Market.sol",
  "address": "0x85B9a044c79c6917A8ae62e0d6769fA8bbb64d59",
  "abi": [
    {
      "inputs": [
        {
          "internalType": "address",
          "name": "_usdt",
          "type": "address"
        },
        {
          "internalType": "address",
          "name": "_mspc",
          "type": "address"
        }
      ],
      "stateMutability": "nonpayable",
      "type": "constructor"
    },
    {
      "anonymous": false,
      "inputs": [
        {
          "indexed": true,
          "internalType": "uint256",
          "name": "itemId",
          "type": "uint256"
        },
        {
          "indexed": true,
          "internalType": "address",
          "name": "nftContract",
          "type": "address"
        },
        {
          "indexed": true,
          "internalType": "uint256",
          "name": "tokenId",
          "type": "uint256"
        },
        {
          "indexed": false,
          "internalType": "address",
          "name": "author",
          "type": "address"
        },
        {
          "indexed": false,
          "internalType": "address",
          "name": "holder",
          "type": "address"
        },
        {
          "indexed": false,
          "internalType": "uint256",
          "name": "mspcPrice",
          "type": "uint256"
        },
        {
          "indexed": false,
          "internalType": "uint256",
          "name": "usdtPrice",
          "type": "uint256"
        },
        {
          "indexed": false,
          "internalType": "uint256",
          "name": "timeStamp",
          "type": "uint256"
        },
        {
          "indexed": false,
          "internalType": "bool",
          "name": "sold",
          "type": "bool"
        }
      ],
      "name": "MarketItemMinted",
      "type": "event"
    },
    {
      "anonymous": false,
      "inputs": [
        {
          "indexed": true,
          "internalType": "uint256",
          "name": "itemId",
          "type": "uint256"
        },
        {
          "indexed": true,
          "internalType": "address",
          "name": "nftContract",
          "type": "address"
        },
        {
          "indexed": true,
          "internalType": "uint256",
          "name": "tokenId",
          "type": "uint256"
        },
        {
          "indexed": false,
          "internalType": "address",
          "name": "from",
          "type": "address"
        },
        {
          "indexed": false,
          "internalType": "address",
          "name": "to",
          "type": "address"
        },
        {
          "indexed": false,
          "internalType": "uint256",
          "name": "mspcPrice",
          "type": "uint256"
        },
        {
          "indexed": false,
          "internalType": "uint256",
          "name": "usdtPrice",
          "type": "uint256"
        },
        {
          "indexed": false,
          "internalType": "uint256",
          "name": "timeStamp",
          "type": "uint256"
        }
      ],
      "name": "MarketItemPurchased",
      "type": "event"
    },
    {
      "anonymous": false,
      "inputs": [
        {
          "indexed": true,
          "internalType": "address",
          "name": "previousOwner",
          "type": "address"
        },
        {
          "indexed": true,
          "internalType": "address",
          "name": "newOwner",
          "type": "address"
        }
      ],
      "name": "OwnershipTransferred",
      "type": "event"
    },
    {
      "inputs": [],
      "name": "_tokensSold",
      "outputs": [
        {
          "internalType": "uint256",
          "name": "_value",
          "type": "uint256"
        }
      ],
      "stateMutability": "view",
      "type": "function"
    },
    {
      "inputs": [
        {
          "internalType": "uint256",
          "name": "_nftId",
          "type": "uint256"
        },
        {
          "internalType": "uint256",
          "name": "_newPrice",
          "type": "uint256"
        }
      ],
      "name": "changeMspcPriceById",
      "outputs": [],
      "stateMutability": "nonpayable",
      "type": "function"
    },
    {
      "inputs": [
        {
          "internalType": "uint256",
          "name": "_nftId",
          "type": "uint256"
        },
        {
          "internalType": "uint256",
          "name": "_newPrice",
          "type": "uint256"
        }
      ],
      "name": "changeUsdtPriceById",
      "outputs": [],
      "stateMutability": "nonpayable",
      "type": "function"
    },
    {
      "inputs": [],
      "name": "fetchItemsCreated",
      "outputs": [
        {
          "components": [
            {
              "internalType": "uint256",
              "name": "itemId",
              "type": "uint256"
            },
            {
              "internalType": "address",
              "name": "nftContract",
              "type": "address"
            },
            {
              "internalType": "uint256",
              "name": "tokenId",
              "type": "uint256"
            },
            {
              "internalType": "address payable",
              "name": "author",
              "type": "address"
            },
            {
              "internalType": "address payable",
              "name": "holder",
              "type": "address"
            },
            {
              "internalType": "uint256",
              "name": "mspcPrice",
              "type": "uint256"
            },
            {
              "internalType": "uint256",
              "name": "usdtPrice",
              "type": "uint256"
            },
            {
              "internalType": "bool",
              "name": "sold",
              "type": "bool"
            }
          ],
          "internalType": "struct Marketplace.MarketItem[]",
          "name": "",
          "type": "tuple[]"
        }
      ],
      "stateMutability": "view",
      "type": "function"
    },
    {
      "inputs": [],
      "name": "fetchMarketItems",
      "outputs": [
        {
          "components": [
            {
              "internalType": "uint256",
              "name": "itemId",
              "type": "uint256"
            },
            {
              "internalType": "address",
              "name": "nftContract",
              "type": "address"
            },
            {
              "internalType": "uint256",
              "name": "tokenId",
              "type": "uint256"
            },
            {
              "internalType": "address payable",
              "name": "author",
              "type": "address"
            },
            {
              "internalType": "address payable",
              "name": "holder",
              "type": "address"
            },
            {
              "internalType": "uint256",
              "name": "mspcPrice",
              "type": "uint256"
            },
            {
              "internalType": "uint256",
              "name": "usdtPrice",
              "type": "uint256"
            },
            {
              "internalType": "bool",
              "name": "sold",
              "type": "bool"
            }
          ],
          "internalType": "struct Marketplace.MarketItem[]",
          "name": "",
          "type": "tuple[]"
        }
      ],
      "stateMutability": "view",
      "type": "function"
    },
    {
      "inputs": [],
      "name": "fetchMyNFTs",
      "outputs": [
        {
          "components": [
            {
              "internalType": "uint256",
              "name": "itemId",
              "type": "uint256"
            },
            {
              "internalType": "address",
              "name": "nftContract",
              "type": "address"
            },
            {
              "internalType": "uint256",
              "name": "tokenId",
              "type": "uint256"
            },
            {
              "internalType": "address payable",
              "name": "author",
              "type": "address"
            },
            {
              "internalType": "address payable",
              "name": "holder",
              "type": "address"
            },
            {
              "internalType": "uint256",
              "name": "mspcPrice",
              "type": "uint256"
            },
            {
              "internalType": "uint256",
              "name": "usdtPrice",
              "type": "uint256"
            },
            {
              "internalType": "bool",
              "name": "sold",
              "type": "bool"
            }
          ],
          "internalType": "struct Marketplace.MarketItem[]",
          "name": "",
          "type": "tuple[]"
        }
      ],
      "stateMutability": "view",
      "type": "function"
    },
    {
      "inputs": [],
      "name": "maxGiveAway",
      "outputs": [
        {
          "internalType": "uint256",
          "name": "",
          "type": "uint256"
        }
      ],
      "stateMutability": "view",
      "type": "function"
    },
    {
      "inputs": [
        {
          "internalType": "address",
          "name": "_nftContract",
          "type": "address"
        },
        {
          "internalType": "uint256",
          "name": "_tokenId",
          "type": "uint256"
        },
        {
          "internalType": "uint256",
          "name": "_mspcPrice",
          "type": "uint256"
        },
        {
          "internalType": "uint256",
          "name": "_usdtPrice",
          "type": "uint256"
        }
      ],
      "name": "mintMarketItem",
      "outputs": [],
      "stateMutability": "payable",
      "type": "function"
    },
    {
      "inputs": [],
      "name": "mspc",
      "outputs": [
        {
          "internalType": "contract IERC20",
          "name": "",
          "type": "address"
        }
      ],
      "stateMutability": "view",
      "type": "function"
    },
    {
      "inputs": [],
      "name": "mspcRate",
      "outputs": [
        {
          "internalType": "uint256",
          "name": "",
          "type": "uint256"
        }
      ],
      "stateMutability": "view",
      "type": "function"
    },
    {
      "inputs": [],
      "name": "owner",
      "outputs": [
        {
          "internalType": "address",
          "name": "",
          "type": "address"
        }
      ],
      "stateMutability": "view",
      "type": "function"
    },
    {
      "inputs": [
        {
          "internalType": "address",
          "name": "_nftContract",
          "type": "address"
        },
        {
          "internalType": "uint256",
          "name": "_itemId",
          "type": "uint256"
        }
      ],
      "name": "purchaseMarketItemByMspc",
      "outputs": [],
      "stateMutability": "payable",
      "type": "function"
    },
    {
      "inputs": [
        {
          "internalType": "address",
          "name": "_nftContract",
          "type": "address"
        },
        {
          "internalType": "uint256",
          "name": "_itemId",
          "type": "uint256"
        }
      ],
      "name": "purchaseMarketItemByUsdt",
      "outputs": [],
      "stateMutability": "payable",
      "type": "function"
    },
    {
      "inputs": [],
      "name": "renounceOwnership",
      "outputs": [],
      "stateMutability": "nonpayable",
      "type": "function"
    },
    {
      "inputs": [],
      "name": "royalties",
      "outputs": [
        {
          "internalType": "uint256",
          "name": "",
          "type": "uint256"
        }
      ],
      "stateMutability": "view",
      "type": "function"
    },
    {
      "inputs": [
        {
          "internalType": "uint256",
          "name": "_msxGiveAway",
          "type": "uint256"
        }
      ],
      "name": "setMaxGiveAway",
      "outputs": [],
      "stateMutability": "nonpayable",
      "type": "function"
    },
    {
      "inputs": [
        {
          "internalType": "uint256",
          "name": "_mspcRate",
          "type": "uint256"
        }
      ],
      "name": "setMspcRate",
      "outputs": [],
      "stateMutability": "nonpayable",
      "type": "function"
    },
    {
      "inputs": [
        {
          "internalType": "uint256",
          "name": "_royalties",
          "type": "uint256"
        }
      ],
      "name": "setRoyalties",
      "outputs": [],
      "stateMutability": "nonpayable",
      "type": "function"
    },
    {
      "inputs": [
        {
          "internalType": "address",
          "name": "newOwner",
          "type": "address"
        }
      ],
      "name": "transferOwnership",
      "outputs": [],
      "stateMutability": "nonpayable",
      "type": "function"
    },
    {
      "inputs": [
        {
          "internalType": "uint256",
          "name": "_nftId",
          "type": "uint256"
        },
        {
          "internalType": "uint256",
          "name": "_newPrice",
          "type": "uint256"
        }
      ],
      "name": "updateMspcPriceById",
      "outputs": [],
      "stateMutability": "nonpayable",
      "type": "function"
    },
    {
      "inputs": [
        {
          "internalType": "uint256",
          "name": "_nftId",
          "type": "uint256"
        },
        {
          "internalType": "uint256",
          "name": "_newPrice",
          "type": "uint256"
        }
      ],
      "name": "updateUsdtPriceById",
      "outputs": [],
      "stateMutability": "nonpayable",
      "type": "function"
    },
    {
      "inputs": [],
      "name": "usdt",
      "outputs": [
        {
          "internalType": "contract IERC20",
          "name": "",
          "type": "address"
        }
      ],
      "stateMutability": "view",
      "type": "function"
    }
  ],
  "bytecode": "0x6080604052600a600655600060075560016008553480156200002057600080fd5b5060405162001d0438038062001d048339810160408190526200004391620000f1565b6200004e3362000084565b60018055600480546001600160a01b039384166001600160a01b0319918216179091556005805492909316911617905562000128565b600080546001600160a01b038381166001600160a01b0319831681178455604051919092169283917f8be0079c531659141344cd1fd0a4f28419497f9722a3daafe3b4186f6b6457e09190a35050565b80516001600160a01b0381168114620000ec57600080fd5b919050565b6000806040838503121562000104578182fd5b6200010f83620000d4565b91506200011f60208401620000d4565b90509250929050565b611bcc80620001386000396000f3fe6080604052600436106101755760003560e01c8063715018a6116100cb578063c2fb353e1161007f578063f064c32e11610059578063f064c32e146103a7578063f1da0b5a146103bc578063f2fde38b146103dc57600080fd5b8063c2fb353e1461035b578063e427c1271461037b578063f053dc5c1461039157600080fd5b80638da5cb5b116100b05780638da5cb5b1461031357806399abdcc314610331578063a824d0561461034457600080fd5b8063715018a6146102de5780638a4bc2ad146102f357600080fd5b80632b80183f1161012d5780632f9876de116101075780632f9876de1461027a5780633d8fad7d1461029a578063528d3d5b146102ba57600080fd5b80632b80183f1461020f5780632c6d85451461022f5780632f48ab7d1461024257600080fd5b80630ff45c351161015e5780630ff45c35146101c7578063202e3740146101da578063286c3b13146101ef57600080fd5b80630e1476531461017a5780630f08efe01461019c575b600080fd5b34801561018657600080fd5b5061019a610195366004611a37565b6103fc565b005b3480156101a857600080fd5b506101b1610482565b6040516101be9190611a58565b60405180910390f35b61019a6101d53660046119af565b61064a565b3480156101e657600080fd5b506101b16108ff565b3480156101fb57600080fd5b5061019a61020a366004611a37565b610afe565b34801561021b57600080fd5b5061019a61022a366004611a07565b610b7f565b61019a61023d366004611986565b610bde565b34801561024e57600080fd5b50600454610262906001600160a01b031681565b6040516001600160a01b0390911681526020016101be565b34801561028657600080fd5b5061019a610295366004611a37565b610ffe565b3480156102a657600080fd5b5061019a6102b5366004611a07565b61106d565b3480156102c657600080fd5b506102d060075481565b6040519081526020016101be565b3480156102ea57600080fd5b5061019a6110cc565b3480156102ff57600080fd5b50600554610262906001600160a01b031681565b34801561031f57600080fd5b506000546001600160a01b0316610262565b61019a61033f366004611986565b611132565b34801561035057600080fd5b506003546102d09081565b34801561036757600080fd5b5061019a610376366004611a07565b61153d565b34801561038757600080fd5b506102d060085481565b34801561039d57600080fd5b506102d060065481565b3480156103b357600080fd5b506101b161159c565b3480156103c857600080fd5b5061019a6103d7366004611a37565b61179b565b3480156103e857600080fd5b5061019a6103f7366004611965565b61180a565b60008281526009602052604090206004015482906001600160a01b0316331461046c5760405162461bcd60e51b815260206004820152601460248201527f417574686f72697a6174696f6e2064656e69656400000000000000000000000060448201526064015b60405180910390fd5b5060009182526009602052604090912060050155565b6060600061048f60025490565b9050600061049c60035490565b6002546104a99190611b4e565b90506000808267ffffffffffffffff8111156104d557634e487b7160e01b600052604160045260246000fd5b60405190808252806020026020018201604052801561054457816020015b604080516101008101825260008082526020808301829052928201819052606082018190526080820181905260a0820181905260c0820181905260e082015282526000199092019101816104f35790505b50905060005b84811015610641576000818152600960205260409020600401546001600160a01b031661062f576000818152600960209081526040918290208251610100810184528154815260018201546001600160a01b039081169382019390935260028201549381019390935260038101548216606084015260048101549091166080830152600581015460a0830152600681015460c0830152600781015460ff16151560e0830152835183929085908790811061061457634e487b7160e01b600052603260045260246000fd5b602090810291909101015261062a600186611af7565b945050505b8061063981611b65565b91505061054a565b50949350505050565b6002600154141561069d5760405162461bcd60e51b815260206004820152601f60248201527f5265656e7472616e637947756172643a207265656e7472616e742063616c6c006044820152606401610463565b6002600155816106ef5760405162461bcd60e51b815260206004820152601b60248201527f5072696365206d757374206265206d6f7265207468616e206f6e6500000000006044820152606401610463565b6000811161073f5760405162461bcd60e51b815260206004820152601b60248201527f5072696365206d757374206265206d6f7265207468616e206f6e6500000000006044820152606401610463565b600061074a60025490565b60408051610100810182528281526001600160a01b0388811660208084018281528486018b8152336060870181815260006080890181815260a08a018f815260c08b018f815260e08c018481528e85526009909952928c90209a518b55955160018b01805473ffffffffffffffffffffffffffffffffffffffff19908116928c16929092179055945160028b0155915160038a0180548616918a1691909117905590516004808a01805490951691909816179092559151600587015551600686015590516007909401805460ff19169415159490941790935592516323b872dd60e01b81529081019190915230602482015260448101879052919250906323b872dd90606401600060405180830381600087803b15801561086a57600080fd5b505af115801561087e573d6000803e3d6000fd5b50505050610890600280546001019055565b604080513381526000602082018190528183018690526060820185905242608083015260a0820152905185916001600160a01b0388169184917ff508e0d848eec34da1ba7824d5358de0f9ab39a7b3b018b1cb17f36a5d287ab2919081900360c00190a4505060018055505050565b6060600061090c60025490565b905060008060005b8381101561095e576000818152600960205260409020600401546001600160a01b031633141561094c57610949600184611af7565b92505b8061095681611b65565b915050610914565b5060008267ffffffffffffffff81111561098857634e487b7160e01b600052604160045260246000fd5b6040519080825280602002602001820160405280156109f757816020015b604080516101008101825260008082526020808301829052928201819052606082018190526080820181905260a0820181905260c0820181905260e082015282526000199092019101816109a65790505b50905060005b84811015610641576000818152600960205260409020600401546001600160a01b0316331415610aec57600081815260096020908152604080832054808452928190208151610100810183528154815260018201546001600160a01b039081169482019490945260028201549281019290925260038101548316606083015260048101549092166080820152600582015460a0820152600682015460c082015260079091015460ff16151560e082015283518190859087908110610ad157634e487b7160e01b600052603260045260246000fd5b6020908102919091010152610ae7600186611af7565b945050505b80610af681611b65565b9150506109fd565b60008281526009602052604090206004015482906001600160a01b03163314610b695760405162461bcd60e51b815260206004820152601460248201527f417574686f72697a6174696f6e2064656e6965640000000000000000000000006044820152606401610463565b5060009182526009602052604090912060060155565b6000546001600160a01b03163314610bd95760405162461bcd60e51b815260206004820181905260248201527f4f776e61626c653a2063616c6c6572206973206e6f7420746865206f776e65726044820152606401610463565b600655565b60026001541415610c315760405162461bcd60e51b815260206004820152601f60248201527f5265656e7472616e637947756172643a207265656e7472616e742063616c6c006044820152606401610463565b60026001556008546040516370a0823160e01b81523360048201526001600160a01b038416906370a082319060240160206040518083038186803b158015610c7857600080fd5b505afa158015610c8c573d6000803e3d6000fd5b505050506040513d601f19601f82011682018060405250810190610cb09190611a1f565b10610cfd5760405162461bcd60e51b815260206004820152601360248201527f4e6f206d6f726520617661696c61626c652e21000000000000000000000000006044820152606401610463565b600081815260096020526040902060050154348114610d5e5760405162461bcd60e51b815260206004820152601060248201527f4e6f7420656e6f75676820746f6b656e000000000000000000000000000000006044820152606401610463565b600082815260096020526040812060020154600654909190606490610d839085611b2f565b610d8d9190611b0f565b90506000610d9b8285611b4e565b60008681526009602052604090819020600480820180543373ffffffffffffffffffffffffffffffffffffffff198216811790925560078401805460ff1916600117905560055460039094015494516323b872dd60e01b8152928301919091526001600160a01b03938416602483015260448201879052939450928216929116906323b872dd90606401602060405180830381600087803b158015610e3f57600080fd5b505af1158015610e53573d6000803e3d6000fd5b505050506040513d601f19601f82011682018060405250810190610e7791906119e7565b506005546000878152600960205260409081902060049081015491516323b872dd60e01b815233918101919091526001600160a01b039182166024820152604481018590529116906323b872dd90606401602060405180830381600087803b158015610ee257600080fd5b505af1158015610ef6573d6000803e3d6000fd5b505050506040513d601f19601f82011682018060405250810190610f1a91906119e7565b50610f29600380546001019055565b6040516323b872dd60e01b8152306004820152336024820152604481018590526001600160a01b038816906323b872dd90606401600060405180830381600087803b158015610f7757600080fd5b505af1158015610f8b573d6000803e3d6000fd5b5050604080516001600160a01b038581168252336020830152349282019290925260006060820152426080820152879350908a16915088907f8844ce79c3fd6774abc17bcf50e54472d3fa6ea4d6886239ee2cc7298de7b2b59060a0015b60405180910390a45050600180555050505050565b6000546001600160a01b031633146110585760405162461bcd60e51b815260206004820181905260248201527f4f776e61626c653a2063616c6c6572206973206e6f7420746865206f776e65726044820152606401610463565b60009182526009602052604090912060050155565b6000546001600160a01b031633146110c75760405162461bcd60e51b815260206004820181905260248201527f4f776e61626c653a2063616c6c6572206973206e6f7420746865206f776e65726044820152606401610463565b600755565b6000546001600160a01b031633146111265760405162461bcd60e51b815260206004820181905260248201527f4f776e61626c653a2063616c6c6572206973206e6f7420746865206f776e65726044820152606401610463565b61113060006118ec565b565b600260015414156111855760405162461bcd60e51b815260206004820152601f60248201527f5265656e7472616e637947756172643a207265656e7472616e742063616c6c006044820152606401610463565b60026001556008546040516370a0823160e01b81523360048201526001600160a01b038416906370a082319060240160206040518083038186803b1580156111cc57600080fd5b505afa1580156111e0573d6000803e3d6000fd5b505050506040513d601f19601f820116820180604052508101906112049190611a1f565b106112515760405162461bcd60e51b815260206004820152601360248201527f4e6f206d6f726520617661696c61626c652e21000000000000000000000000006044820152606401610463565b6000818152600960205260409020600601543481146112b25760405162461bcd60e51b815260206004820152601060248201527f4e6f7420656e6f75676820746f6b656e000000000000000000000000000000006044820152606401610463565b6000828152600960205260408120600201546006549091906064906112d79085611b2f565b6112e19190611b0f565b905060006112ef8285611b4e565b60008681526009602052604090819020600480820180543373ffffffffffffffffffffffffffffffffffffffff198216811790925560078401805460ff19166001179055825460039094015494516323b872dd60e01b8152928301919091526001600160a01b03938416602483015260448201879052939450928216929116906323b872dd90606401602060405180830381600087803b15801561139257600080fd5b505af11580156113a6573d6000803e3d6000fd5b505050506040513d601f19601f820116820180604052508101906113ca91906119e7565b50600480546000888152600960205260409081902083015490516323b872dd60e01b815233938101939093526001600160a01b0390811660248401526044830185905216906323b872dd90606401602060405180830381600087803b15801561143257600080fd5b505af1158015611446573d6000803e3d6000fd5b505050506040513d601f19601f8201168201806040525081019061146a91906119e7565b50611479600380546001019055565b6040516323b872dd60e01b8152306004820152336024820152604481018590526001600160a01b038816906323b872dd90606401600060405180830381600087803b1580156114c757600080fd5b505af11580156114db573d6000803e3d6000fd5b5050604080516001600160a01b038581168252336020830152600092820192909252346060820152426080820152879350908a16915088907f8844ce79c3fd6774abc17bcf50e54472d3fa6ea4d6886239ee2cc7298de7b2b59060a001610fe9565b6000546001600160a01b031633146115975760405162461bcd60e51b815260206004820181905260248201527f4f776e61626c653a2063616c6c6572206973206e6f7420746865206f776e65726044820152606401610463565b600855565b606060006115a960025490565b905060008060005b838110156115fb576000818152600960205260409020600301546001600160a01b03163314156115e9576115e6600184611af7565b92505b806115f381611b65565b9150506115b1565b5060008267ffffffffffffffff81111561162557634e487b7160e01b600052604160045260246000fd5b60405190808252806020026020018201604052801561169457816020015b604080516101008101825260008082526020808301829052928201819052606082018190526080820181905260a0820181905260c0820181905260e082015282526000199092019101816116435790505b50905060005b84811015610641576000818152600960205260409020600301546001600160a01b031633141561178957600081815260096020908152604080832054808452928190208151610100810183528154815260018201546001600160a01b039081169482019490945260028201549281019290925260038101548316606083015260048101549092166080820152600582015460a0820152600682015460c082015260079091015460ff16151560e08201528351819085908790811061176e57634e487b7160e01b600052603260045260246000fd5b6020908102919091010152611784600186611af7565b945050505b8061179381611b65565b91505061169a565b6000546001600160a01b031633146117f55760405162461bcd60e51b815260206004820181905260248201527f4f776e61626c653a2063616c6c6572206973206e6f7420746865206f776e65726044820152606401610463565b60009182526009602052604090912060060155565b6000546001600160a01b031633146118645760405162461bcd60e51b815260206004820181905260248201527f4f776e61626c653a2063616c6c6572206973206e6f7420746865206f776e65726044820152606401610463565b6001600160a01b0381166118e05760405162461bcd60e51b815260206004820152602660248201527f4f776e61626c653a206e6577206f776e657220697320746865207a65726f206160448201527f64647265737300000000000000000000000000000000000000000000000000006064820152608401610463565b6118e9816118ec565b50565b600080546001600160a01b0383811673ffffffffffffffffffffffffffffffffffffffff19831681178455604051919092169283917f8be0079c531659141344cd1fd0a4f28419497f9722a3daafe3b4186f6b6457e09190a35050565b80356001600160a01b038116811461196057600080fd5b919050565b600060208284031215611976578081fd5b61197f82611949565b9392505050565b60008060408385031215611998578081fd5b6119a183611949565b946020939093013593505050565b600080600080608085870312156119c4578182fd5b6119cd85611949565b966020860135965060408601359560600135945092505050565b6000602082840312156119f8578081fd5b8151801515811461197f578182fd5b600060208284031215611a18578081fd5b5035919050565b600060208284031215611a30578081fd5b5051919050565b60008060408385031215611a49578182fd5b50508035926020909101359150565b602080825282518282018190526000919060409081850190868401855b82811015611aea57815180518552868101516001600160a01b039081168887015286820151878701526060808301518216908701526080808301519091169086015260a0808201519086015260c0808201519086015260e0908101511515908501526101009093019290850190600101611a75565b5091979650505050505050565b60008219821115611b0a57611b0a611b80565b500190565b600082611b2a57634e487b7160e01b81526012600452602481fd5b500490565b6000816000190483118215151615611b4957611b49611b80565b500290565b600082821015611b6057611b60611b80565b500390565b6000600019821415611b7957611b79611b80565b5060010190565b634e487b7160e01b600052601160045260246000fdfea2646970667358221220bd7ec4357c4c88ac50a6a0c32eace5a69bcf1a115f289cffa0235469a238790764736f6c63430008040033",
  "linkReferences": {},
  "deployedLinkReferences": {}
}